:100000000C945F000C9487000C9487000C9487007C
:100010000C9487000C9487000C9487000C94870044
:100020000C9487000C9487000C9487000C94870034
:100030000C9487000C9487000C9487000C94870024
:100040000C94B5030C9487000C94E9060C941B07E0
:100050000C9487000C9487000C9487000C94870004
:100060000C9487000C948700000000080002010037
:100070000003040700000000000000000102040863
:100080001020408001020408102001020408102002
:10009000040404040404040402020202020203032E
:1000A0000303030300000000250028002B000000CC
:1000B0000000240027002A00AD034B07B1031124E0
:1000C0001FBECFEFD8E0DEBFCDBF11E0A0E0B1E0B2
:1000D000EAEDF1E102C005900D92A031B107D9F728
:1000E00021E0A0E1B1E001C01D92A23CB207E1F71E
:1000F00010E0CCEBD0E004C02297FE010E94DC08A7
:10010000C83BD107C9F70E948F070C94E0080C94F4
:100110000000FC0111821082128213821482158267
:100120001682178210861186128613860895CF9341
:10013000DF93EC0188819981009721F00E94CD0620
:1001400019821882DF91CF9108950C9497000F9334
:100150001F93CF93DF93EC018B0188819981892BC9
:1001600019F0CE010E94970019830883C8010E94EC
:10017000CD0626E040E052EC61E070E08881998194
:100180000E946B06DF91CF911F910F9108954F92BE
:100190005F926F927F928F929F92AF92BF92EF92F7
:1001A000FF921F93CF93DF9300D000D01F92CDB763
:1001B000DEB77C014A015B010E94FF032B013C0179
:1001C00010E00E94FF0364197509860997098616D5
:1001D0009706A806B90608F45DC0D7018D919C91D9
:1001E000DC01ED91FC910680F781E02D099597FDEA
:1001F000E8CF112319F0113051F00BC09C01359557
:100200002795FC01E2279F0120FD03C0DACF80FF84
:10021000D7CF91E0910FE1E0F0E0EC0FFD1FE10F8F
:10022000F11D80839530A1F56C817D8180E090E0A7
:100230000E94C70720E030E040E85EE30E945508D6
:10024000D70112966D937D938D939C9315976A8138
:100250007B817695679580E090E00E94C70720E05B
:1002600030E040E85CE30E945508F701668377833D
:10027000808791872981822F90E095958795959524
:10028000879582872170238760E070E0CB0106C0EC
:10029000192F97CF62E070E880E090E80F900F9000
:1002A0000F900F900F90DF91CF911F91FF90EF90E3
:1002B000BF90AF909F908F907F906F905F904F9086
:1002C0000895CF92DF92EF92FF920F931F93CF93F7
:1002D000DF93CDB7DEB727970FB6F894DEBF0FBE1A
:1002E000CDBF8C01D62E5F834E8379011D822115EF
:1002F000310531F0CA01892B19F0862F8068D82E7C
:1003000055EAC52EC982DA82D8018D919C91DC0113
:10031000ED91FC910280F381E02D42E050E0BE01BE
:100320006F5F7F4F0995D7FE40C08D818C258E254C
:100330008D258D83EE81FF81C7018E0F9F1FE817EA
:10034000F90729F031912D8123272D83F8CFEC82F5
:10035000F80180819181DC01ED91FC910280F381B3
:10036000E02D41E050E0BE016C5F7F4F0995F80140
:1003700080819181DC01ED91FC914C8150E0028003
:10038000F381E02DBE016A5F7F4F0995F8018081FE
:100390009181DC01ED91FC910280F381E02D41E03F
:1003A00050E0BE016B5F7F4F099560E070E0CB01CC
:1003B00027960FB6F894DEBF0FBECDBFDF91CF9169
:1003C0001F910F91FF90EF90DF90CF900895FC0167
:1003D00020813181232B39F020E030E040E050E0F3
:1003E00065E20C94610161E070E880E090E80895B6
:1003F0007F92AF92BF92CF92DF92EF92FF920F93D4
:100400001F93CF93DF9300D000D0CDB7DEB75C0150
:100410008B0129833A834B835C830E94FF036B012A
:100420007C01712C29813A814B815C8129833A833B
:100430004B835C830E94FF036C197D098E099F0921
:1004400029813A814B815C81261737074807590774
:1004500068F1D5018D919C91DC01ED91FC910680B4
:10046000F781E02D29833A834B835C8309952981A9
:100470003A814B815C8197FDD9CF772021F0B1E0A3
:100480007B1629F007C0853A910581F603C08A35AD
:10049000910551F491E0970DF801E70DF11D80836E
:1004A000973049F0792EC2CF712CC0CF62E070E84E
:1004B00080E090E803C060E070E0CB010F900F9007
:1004C0000F900F90DF91CF911F910F91FF90EF90C0
:1004D000DF90CF90BF90AF907F9008954F925F9242
:1004E0006F927F928F929F92AF92BF92CF92DF9244
:1004F000EF92FF920F931F93CF93DF93CDB7DEB7A9
:1005000027970FB6F894DEBF0FBECDBF5C014B013D
:1005100069017A010E94FF032B013C01D5018D91F5
:100520009C91892B09F446C020E030E040E050E087
:1005300060E5C5010E94610197FD3EC0A7019601DB
:10054000BE016F5F7F4FC5010E94F80197FD34C067
:100550008F818430A9F58B819C81AD81BE814497C8
:10056000A105B10568F18401912C0E94FF03641973
:10057000750986099709C616D706E806F906C0F078
:10058000F50180819181DC01ED91FC910680F7817C
:10059000E02D099597FDE9CF9394F80181938F01A0
:1005A000F4E19F12E2CF40E030E020E090E00CC0A8
:1005B00042E007C041E005C0462F372F282F04C076
:1005C00040E030E820E090E8642F732F822F2796D8
:1005D0000FB6F894DEBF0FBECDBFDF91CF911F9154
:1005E0000F91FF90EF90DF90CF90BF90AF909F90D2
:1005F0008F907F906F905F904F900895BF92CF92B1
:10060000DF92EF92FF920F931F93CF93DF93CDB7BB
:10061000DEB727970FB6F894DEBF0FBECDBF8C01B3
:10062000B62E69017A01FC0180819181892B89F1C3
:10063000C8010E94E701BB2011F061E201C060E245
:1006400020E030E040E050E0C8010E94610197FDE9
:100650001AC0A7019601BE016F5F7F4FC8010E94BB
:10066000F80197FD10C08F81813889F48B819C81BE
:10067000AD81BE8140E00597A105B10558F030E09D
:1006800020E090E00AC0462F372F282F06C040E018
:1006900001C041E030E820E090E8642F732F822F02
:1006A00027960FB6F894DEBF0FBECDBFDF91CF9176
:1006B0001F910F91FF90EF90DF90CF90BF90089522
:1006C00065E271E080E191E00E94A70061E083E0D3
:1006D0000C941905CF93DF93CDB7DEB764970FB6AF
:1006E000F894DEBF0FBECDBF44EF51E060E070E094
:1006F00080E191E00E94C70097FF26C060E070E0B3
:1007000083E00E94910424E630E040E050E0BE0126
:100710006F5F7F4F80E191E00E946E0297FD14C0F1
:1007200028EE33E040E050E060E080E191E00E949C
:10073000FE026FEF70E083E00E94910468EE73E0C8
:1007400080E090E00E942E0464960FB6F894DEBF1D
:100750000FBECDBFDF91CF91089580E191E00C9461
:10076000890080E191E00C94A5001F920F920FB6D2
:100770000F9211242F933F938F939F93AF93BF9327
:1007800080911D0190911E01A0911F01B091200147
:1007900030911C0123E0230F2D3720F40196A11D79
:1007A000B11D05C026E8230F0296A11DB11D20939F
:1007B0001C0180931D0190931E01A0931F01B09313
:1007C00020018091210190912201A0912301B091FB
:1007D00024010196A11DB11D809321019093220156
:1007E000A0932301B0932401BF91AF919F918F916A
:1007F0003F912F910F900FBE0F901F9018952FB71C
:10080000F89460911D0170911E0180911F019091DB
:1008100020012FBF08953FB7F89480912101909156
:100820002201A0912301B091240126B5A89B05C007
:100830002F3F19F00196A11DB11D3FBF6627782FEC
:10084000892F9A2F620F711D811D911D42E0660F45
:10085000771F881F991F4A95D1F70895CF92DF928D
:10086000EF92FF92CF93DF936B017C010E940B0408
:10087000EB01C114D104E104F10489F00E94C60720
:100880000E940B046C1B7D0B683E734090F381E06B
:10089000C81AD108E108F108C851DC4FEACFDF914E
:1008A000CF91FF90EF90DF90CF900895789484B52A
:1008B000826084BD84B5816084BD85B5826085BD5C
:1008C00085B5816085BDEEE6F0E080818160808342
:1008D000E1E8F0E010828081826080838081816025
:1008E0008083E0E8F0E0808181608083E1EBF0E0EC
:1008F000808184608083E0EBF0E080818160808390
:10090000EAE7F0E080818460808380818260808378
:100910008081816080838081806880831092C100A3
:1009200008951F93CF93DF93182FEB0161E00E948E
:100930001905209711F460E004C0CF3FD10539F4C8
:1009400061E0812FDF91CF911F910C945205E12F2F
:10095000F0E0E859FF4FE491E330F9F048F4E1307A
:10096000B9F0E230A1F584B5806284BDC8BD34C061
:10097000E730E9F0E83019F1E43049F58091800082
:10098000806280938000D0938B00C0938A0024C043
:1009900084B5806884BDC7BD1FC080918000806819
:1009A00080938000D0938900C093880015C0809107
:1009B000B00080688093B000C093B3000DC08091F8
:1009C000B00080628093B000C093B40005C0C0380E
:1009D000D1050CF0B5CFAFCFDF91CF911F91089526
:1009E000833081F028F4813099F08230A1F00895AD
:1009F0008730A9F08830B9F08430D1F4809180003C
:100A00008F7D03C0809180008F7780938000089550
:100A100084B58F7702C084B58F7D84BD08958091A1
:100A2000B0008F7703C08091B0008F7D8093B000BD
:100A30000895CF93DF9390E0FC01E458FF4F249199
:100A4000FC01E057FF4F8491882349F190E0880F23
:100A5000991FFC01E255FF4FA591B4918C559F4F12
:100A6000FC01C591D4919FB7611108C0F8948C9195
:100A7000209582238C93888182230AC0623051F4AE
:100A8000F8948C91322F309583238C938881822B1C
:100A9000888304C0F8948C91822B8C939FBFDF9144
:100AA000CF9108950F931F93CF93DF931F92CDB7EC
:100AB000DEB7282F30E0F901E859FF4F8491F901A2
:100AC000E458FF4F1491F901E057FF4F04910023C0
:100AD000C9F0882321F069830E94F0046981E02F26
:100AE000F0E0EE0FFF1FEC55FF4FA591B4919FB7BB
:100AF000F8948C91611103C01095812301C0812B62
:100B00008C939FBF0F90DF91CF911F910F9108950C
:100B1000FC01818D228D90E0805C9F4F821B9109AA
:100B20008F7399270895FC01918D828D981731F06C
:100B3000828DE80FF11D858D90E008958FEF9FEF76
:100B40000895FC01918D828D981761F0828DDF01EF
:100B5000A80FB11D5D968C91928D9F5F9F73928FB0
:100B600090E008958FEF9FEF089581E497E0892B3F
:100B700049F080E090E0892B29F00E944107811123
:100B80000C9400000895FC01848DDF01A80FB11DB5
:100B9000A35ABF4F2C91848D90E001968F739927B3
:100BA000848FA689B7892C93A089B1898C918064A0
:100BB0008C93938D848D981306C00288F389E02D61
:100BC00080818F7D80830895CF93DF93EC01888DA2
:100BD0008823C9F0EA89FB89808185FD05C0A88941
:100BE000B9898C9186FD0FC00FB607FCF5CF8081C7
:100BF00085FFF2CFA889B9898C9185FFEDCFCE0111
:100C00000E94C305E7CFDF91CF910895CF92DF9285
:100C1000FF920F931F93CF93DF931F92CDB7DEB751
:100C20006C0181E0D60158968C9358975B969C9105
:100C30005B975C968C915C97981307C05096ED91EA
:100C4000FC915197808185FD2EC0F601038D10E047
:100C50000F5F1F4F0F731127F02EF601848DF812CE
:100C600011C00FB607FCF9CFD6015096ED91FC915B
:100C70005197808185FFF1CFC60169830E94C3052A
:100C80006981EBCF838DE80FF11DE35AFF4F60833D
:100C9000D6015B960C935B975296ED91FC9153971E
:100CA000808180620CC0D6015696ED91FC915797D9
:100CB00060835096ED91FC91519780818064808390
:100CC00081E090E00F90DF91CF911F910F91FF9005
:100CD000DF90CF900895BF92CF92DF92EF92FF9274
:100CE000CF93DF93EC016A017B01B22EE889F98989
:100CF00082E08083411581EE580761057105A1F0FE
:100D000060E079E08DE390E0A70196010E94B808C9
:100D10002150310941095109569547953795279535
:100D2000211580E1380798F0E889F989108260E898
:100D300074E88EE190E0A70196010E94B808215066
:100D40003109410951095695479537952795EC8505
:100D5000FD853083EE85FF852083188EEC89FD8923
:100D6000B082EA89FB89808180618083EA89FB897E
:100D7000808188608083EA89FB89808180688083A4
:100D8000EA89FB8980818F7D8083DF91CF91FF90FD
:100D9000EF90DF90CF90BF900895FC01938D848DEC
:100DA0009813FCCFA289B3898C918F7E8C93A289F2
:100DB000B3898C91877F8C93A289B3898C918F772B
:100DC0008C93A289B3898C918F7D8C93828D818F36
:100DD00008951F920F920FB60F9211242F938F93A5
:100DE0009F93EF93FF93E0913501F091360180815D
:100DF000E0913B01F0913C0182FD12C09081809115
:100E00003E018F5F8F7320913F01821751F0E09177
:100E10003E01F0E0EB5DFE4F958F80933E0101C0F7
:100E20008081FF91EF919F918F912F910F900FBE35
:100E30000F901F9018951F920F920FB60F921124CA
:100E40002F933F934F935F936F937F938F939F93D2
:100E5000AF93BF93EF93FF9385E291E00E94C305A8
:100E6000FF91EF91BF91AF919F918F917F916F9182
:100E70005F914F913F912F910F900FBE0F901F9058
:100E8000189585E291E00E94880521E0892B09F4FC
:100E900020E0822F0895109228011092270188EEF9
:100EA00093E0A0E0B0E08093290190932A01A09301
:100EB0002B01B0932C0184E091E090932601809364
:100EC000250185EC90E0909332018093310184EC10
:100ED00090E0909334018093330180EC90E0909304
:100EE00036018093350181EC90E090933801809336
:100EF000370182EC90E090933A018093390186ECBF
:100F000090E090933C0180933B0110923E0110923F
:100F10003F011092400110924101089508950E94EE
:100F200056040E948E070E946003C5EBD5E00E9424
:100F30006A032097E1F30E94B505F9CFCF92DF92C3
:100F4000EF92FF920F931F93CF93DF936C017A017F
:100F5000EB01E60EF71E00E010E0CE15DF0561F0B4
:100F60006991D601ED91FC910190F081E02DC601CF
:100F70000995080F191FF1CFC801DF91CF911F917B
:100F80000F91FF90EF90DF90CF9008950895E8942F
:100F900009C097FB3EF490958095709561957F4FC1
:100FA0008F4F9F4F9923A9F0F92F96E9BB2793956F
:100FB000F695879577956795B795F111F8CFFAF47F
:100FC000BB0F11F460FF1BC06F5F7F4F8F4F9F4FB0
:100FD00016C0882311F096E911C0772321F09EE80E
:100FE000872F762F05C0662371F096E8862F70E074
:100FF00060E02AF09A95660F771F881FDAF7880F4E
:101000009695879597F9089597F99F6780E870E01E
:1010100060E008959FEF80EC089500240A9416166E
:10102000170618060906089500240A9412161306D6
:10103000140605060895092E0394000C11F4882364
:1010400052F0BB0F40F4BF2B11F460FF04C06F5F80
:101050007F4F8F4F9F4F089557FD9058440F551F56
:1010600059F05F3F71F04795880F97FB991F61F02A
:101070009F3F79F087950895121613061406551FA1
:10108000F2CF4695F1DF08C0161617061806991F0D
:10109000F1CF86957105610508940895E894BB2702
:1010A00066277727CB0197F908950BD0C4CFB5DF1A
:1010B00028F0BADF18F0952309F0A6CFABCF1124A2
:1010C000EECFCADFA0F3959FD1F3950F50E0551FE7
:1010D000629FF001729FBB27F00DB11D639FAA278D
:1010E000F00DB11DAA1F649F6627B00DA11D661FDC
:1010F000829F2227B00DA11D621F739FB00DA11DFD
:10110000621F839FA00D611D221F749F3327A00DB6
:10111000611D231F849F600D211D822F762F6A2F52
:1011200011249F5750408AF0E1F088234AF0EE0FD7
:10113000FF1FBB1F661F771F881F91505040A9F7E4
:101140009E3F510570F060CFAACF5F3FECF3983E11
:10115000DCF3869577956795B795F795E7959F5F4B
:10116000C1F7FE2B880F911D9695879597F90895E5
:10117000A1E21A2EAA1BBB1BFD010DC0AA1FBB1F9B
:10118000EE1FFF1FA217B307E407F50720F0A21B0D
:10119000B30BE40BF50B661F771F881F991F1A947A
:1011A00069F760957095809590959B01AC01BD01A4
:1011B000CF010895EE0FFF1F0590F491E02D0994E3
:1011C00010E0CCEBD0E004C0FE010E94DC082296C7
:0A11D000CE3BD107C9F7F894FFCF1A
:1011DA000000000006069E078805A1059305E405A0
:00000001FF
